{
  "contractName": "Storedata",
  "abi": [
    {
      "inputs": [],
      "payable": false,
      "stateMutability": "nonpayable",
      "type": "constructor"
    },
    {
      "anonymous": false,
      "inputs": [
        {
          "indexed": false,
          "internalType": "string",
          "name": "id",
          "type": "string"
        },
        {
          "indexed": false,
          "internalType": "string",
          "name": "fullname",
          "type": "string"
        },
        {
          "indexed": false,
          "internalType": "string",
          "name": "yearofpassing",
          "type": "string"
        },
        {
          "indexed": false,
          "internalType": "string",
          "name": "deparmentName",
          "type": "string"
        },
        {
          "indexed": false,
          "internalType": "string",
          "name": "fileHash",
          "type": "string"
        },
        {
          "indexed": false,
          "internalType": "bool",
          "name": "requestaccepted",
          "type": "bool"
        }
      ],
      "name": "Dataadded",
      "type": "event"
    },
    {
      "constant": true,
      "inputs": [],
      "name": "owner",
      "outputs": [
        {
          "internalType": "address",
          "name": "",
          "type": "address"
        }
      ],
      "payable": false,
      "stateMutability": "view",
      "type": "function"
    },
    {
      "constant": true,
      "inputs": [
        {
          "internalType": "string",
          "name": "",
          "type": "string"
        },
        {
          "internalType": "uint256",
          "name": "",
          "type": "uint256"
        }
      ],
      "name": "studentStorage",
      "outputs": [
        {
          "internalType": "string",
          "name": "id",
          "type": "string"
        },
        {
          "internalType": "string",
          "name": "fullname",
          "type": "string"
        },
        {
          "internalType": "string",
          "name": "yearofpassing",
          "type": "string"
        },
        {
          "internalType": "string",
          "name": "deparmentName",
          "type": "string"
        },
        {
          "internalType": "string",
          "name": "fileHash",
          "type": "string"
        },
        {
          "internalType": "bool",
          "name": "requestaccepted",
          "type": "bool"
        }
      ],
      "payable": false,
      "stateMutability": "view",
      "type": "function"
    },
    {
      "constant": true,
      "inputs": [
        {
          "internalType": "string",
          "name": "",
          "type": "string"
        }
      ],
      "name": "transcriptCount",
      "outputs": [
        {
          "internalType": "uint256",
          "name": "",
          "type": "uint256"
        }
      ],
      "payable": false,
      "stateMutability": "view",
      "type": "function"
    },
    {
      "constant": false,
      "inputs": [
        {
          "internalType": "string",
          "name": "id",
          "type": "string"
        },
        {
          "internalType": "string",
          "name": "fullname",
          "type": "string"
        },
        {
          "internalType": "string",
          "name": "yearofpassing",
          "type": "string"
        },
        {
          "internalType": "string",
          "name": "deparmentName",
          "type": "string"
        },
        {
          "internalType": "string",
          "name": "fileHash",
          "type": "string"
        }
      ],
      "name": "AddDetails",
      "outputs": [],
      "payable": false,
      "stateMutability": "nonpayable",
      "type": "function"
    }
  ],
  "bytecode": "0x6080604052600080546001600160a01b031916331790553480156200002357600080fd5b50620000f36040518060400160405280600b81526020016a313031393136303230323360a81b8152506040518060400160405280600e81526020016d4e6179616e205368696e6761726560901b815250604051806040016040528060048152602001633230323360e01b8152506040518060400160405280600881526020016721b7b6b83aba32b960c11b8152506040518060400160405280601781526020017f30786533333264343366746a756b6966347234726d7377000000000000000000815250620000f960201b60201c565b6200060f565b60006002866040518082805190602001908083835b602083106200012f5780518252601f1990920191602091820191016200010e565b51815160209384036101000a60001901801990921691161790529201948552506040805194859003820185205460c0860182528b86528583018b90528582018a90526060860189905260808601889052600060a087015290518b51919650600194508b9350918291908401908083835b60208310620001c05780518252601f1990920191602091820191016200019f565b51815160209384036101000a60001901801990921691161790529201948552506040805194859003820190942060008781529082529390932084518051919462000210945085935001906200056a565b5060208281015180516200022b92600185019201906200056a565b5060408201518051620002499160028401916020909101906200056a565b5060608201518051620002679160038401916020909101906200056a565b5060808201518051620002859160048401916020909101906200056a565b5060a08201518160050160006101000a81548160ff0219169083151502179055509050507f0f45e29829eb4b68b1753124b66eee130a7872f34531f00431d5318f17f49f97868686868660006040518080602001806020018060200180602001806020018715151515815260200186810386528c818151815260200191508051906020019080838360005b838110156200032a57818101518382015260200162000310565b50505050905090810190601f168015620003585780820380516001836020036101000a031916815260200191505b5086810385528b5181528b516020918201918d019080838360005b838110156200038d57818101518382015260200162000373565b50505050905090810190601f168015620003bb5780820380516001836020036101000a031916815260200191505b5086810384528a5181528a516020918201918c019080838360005b83811015620003f0578181015183820152602001620003d6565b50505050905090810190601f1680156200041e5780820380516001836020036101000a031916815260200191505b5086810383528951815289516020918201918b019080838360005b838110156200045357818101518382015260200162000439565b50505050905090810190601f168015620004815780820380516001836020036101000a031916815260200191505b5086810382528851815288516020918201918a019080838360005b83811015620004b65781810151838201526020016200049c565b50505050905090810190601f168015620004e45780820380516001836020036101000a031916815260200191505b509b50505050505050505050505060405180910390a16002866040518082805190602001908083835b602083106200052e5780518252601f1990920191602091820191016200050d565b51815160209384036101000a60001901801990921691161790529201948552506040519384900301909220805460010190555050505050505050565b828054600181600116156101000203166002900490600052602060002090601f016020900481019282601f10620005ad57805160ff1916838001178555620005dd565b82800160010185558215620005dd579182015b82811115620005dd578251825591602001919060010190620005c0565b50620005eb929150620005ef565b5090565b6200060c91905b80821115620005eb5760008155600101620005f6565b90565b610f04806200061f6000396000f3fe608060405234801561001057600080fd5b506004361061004c5760003560e01c806355cfc679146100515780638da5cb5b14610312578063d0c6714214610336578063e10ba3ce146103ec575b600080fd5b6100f76004803603604081101561006757600080fd5b810190602081018135600160201b81111561008157600080fd5b82018360208201111561009357600080fd5b803590602001918460018302840111600160201b831117156100b457600080fd5b91908080601f01602080910402602001604051908101604052809392919081815260200183838082843760009201919091525092955050913592506106a6915050565b6040518080602001806020018060200180602001806020018715151515815260200186810386528c818151815260200191508051906020019080838360005b8381101561014e578181015183820152602001610136565b50505050905090810190601f16801561017b5780820380516001836020036101000a031916815260200191505b5086810385528b5181528b516020918201918d019080838360005b838110156101ae578181015183820152602001610196565b50505050905090810190601f1680156101db5780820380516001836020036101000a031916815260200191505b5086810384528a5181528a516020918201918c019080838360005b8381101561020e5781810151838201526020016101f6565b50505050905090810190601f16801561023b5780820380516001836020036101000a031916815260200191505b5086810383528951815289516020918201918b019080838360005b8381101561026e578181015183820152602001610256565b50505050905090810190601f16801561029b5780820380516001836020036101000a031916815260200191505b5086810382528851815288516020918201918a019080838360005b838110156102ce5781810151838201526020016102b6565b50505050905090810190601f1680156102fb5780820380516001836020036101000a031916815260200191505b509b50505050505050505050505060405180910390f35b61031a6109b6565b604080516001600160a01b039092168252519081900360200190f35b6103da6004803603602081101561034c57600080fd5b810190602081018135600160201b81111561036657600080fd5b82018360208201111561037857600080fd5b803590602001918460018302840111600160201b8311171561039957600080fd5b91908080601f0160208091040260200160405190810160405280939291908181526020018383808284376000920191909152509295506109c5945050505050565b60408051918252519081900360200190f35b6106a4600480360360a081101561040257600080fd5b810190602081018135600160201b81111561041c57600080fd5b82018360208201111561042e57600080fd5b803590602001918460018302840111600160201b8311171561044f57600080fd5b91908080601f0160208091040260200160405190810160405280939291908181526020018383808284376000920191909152509295949360208101935035915050600160201b8111156104a157600080fd5b8201836020820111156104b357600080fd5b803590602001918460018302840111600160201b831117156104d457600080fd5b91908080601f0160208091040260200160405190810160405280939291908181526020018383808284376000920191909152509295949360208101935035915050600160201b81111561052657600080fd5b82018360208201111561053857600080fd5b803590602001918460018302840111600160201b8311171561055957600080fd5b91908080601f0160208091040260200160405190810160405280939291908181526020018383808284376000920191909152509295949360208101935035915050600160201b8111156105ab57600080fd5b8201836020820111156105bd57600080fd5b803590602001918460018302840111600160201b831117156105de57600080fd5b91908080601f0160208091040260200160405190810160405280939291908181526020018383808284376000920191909152509295949360208101935035915050600160201b81111561063057600080fd5b82018360208201111561064257600080fd5b803590602001918460018302840111600160201b8311171561066357600080fd5b91908080601f0160208091040260200160405190810160405280939291908181526020018383808284376000920191909152509295506109e2945050505050565b005b8151602081840181018051600180835293830195830195909520949052928352600091825260409182902080548351600293821615610100026000190190911692909204601f810185900485028301850190935282825292909183918301828280156107535780601f1061072857610100808354040283529160200191610753565b820191906000526020600020905b81548152906001019060200180831161073657829003601f168201915b505050505090806001018054600181600116156101000203166002900480601f0160208091040260200160405190810160405280929190818152602001828054600181600116156101000203166002900480156107f15780601f106107c6576101008083540402835291602001916107f1565b820191906000526020600020905b8154815290600101906020018083116107d457829003601f168201915b50505060028085018054604080516020601f60001961010060018716150201909416959095049283018590048502810185019091528181529596959450909250908301828280156108835780601f1061085857610100808354040283529160200191610883565b820191906000526020600020905b81548152906001019060200180831161086657829003601f168201915b5050505060038301805460408051602060026001851615610100026000190190941693909304601f81018490048402820184019092528181529495949350908301828280156109135780601f106108e857610100808354040283529160200191610913565b820191906000526020600020905b8154815290600101906020018083116108f657829003601f168201915b5050505060048301805460408051602060026001851615610100026000190190941693909304601f81018490048402820184019092528181529495949350908301828280156109a35780601f10610978576101008083540402835291602001916109a3565b820191906000526020600020905b81548152906001019060200180831161098657829003601f168201915b5050506005909301549192505060ff1686565b6000546001600160a01b031681565b805160208183018101805160028252928201919093012091525481565b60006002866040518082805190602001908083835b60208310610a165780518252601f1990920191602091820191016109f7565b51815160209384036101000a60001901801990921691161790529201948552506040805194859003820185205460c0860182528b86528583018b90528582018a90526060860189905260808601889052600060a087015290518b51919650600194508b9350918291908401908083835b60208310610aa55780518252601f199092019160209182019101610a86565b51815160209384036101000a600019018019909216911617905292019485525060408051948590038201909420600087815290825293909320845180519194610af394508593500190610e34565b506020828101518051610b0c9260018501920190610e34565b5060408201518051610b28916002840191602090910190610e34565b5060608201518051610b44916003840191602090910190610e34565b5060808201518051610b60916004840191602090910190610e34565b5060a08201518160050160006101000a81548160ff0219169083151502179055509050507f0f45e29829eb4b68b1753124b66eee130a7872f34531f00431d5318f17f49f97868686868660006040518080602001806020018060200180602001806020018715151515815260200186810386528c818151815260200191508051906020019080838360005b83811015610c03578181015183820152602001610beb565b50505050905090810190601f168015610c305780820380516001836020036101000a031916815260200191505b5086810385528b5181528b516020918201918d019080838360005b83811015610c63578181015183820152602001610c4b565b50505050905090810190601f168015610c905780820380516001836020036101000a031916815260200191505b5086810384528a5181528a516020918201918c019080838360005b83811015610cc3578181015183820152602001610cab565b50505050905090810190601f168015610cf05780820380516001836020036101000a031916815260200191505b5086810383528951815289516020918201918b019080838360005b83811015610d23578181015183820152602001610d0b565b50505050905090810190601f168015610d505780820380516001836020036101000a031916815260200191505b5086810382528851815288516020918201918a019080838360005b83811015610d83578181015183820152602001610d6b565b50505050905090810190601f168015610db05780820380516001836020036101000a031916815260200191505b509b50505050505050505050505060405180910390a16002866040518082805190602001908083835b60208310610df85780518252601f199092019160209182019101610dd9565b51815160209384036101000a60001901801990921691161790529201948552506040519384900301909220805460010190555050505050505050565b828054600181600116156101000203166002900490600052602060002090601f016020900481019282601f10610e7557805160ff1916838001178555610ea2565b82800160010185558215610ea2579182015b82811115610ea2578251825591602001919060010190610e87565b50610eae929150610eb2565b5090565b610ecc91905b80821115610eae5760008155600101610eb8565b9056fea265627a7a7231582063487d44d6a4b98f8f5610c75b50abc182c071433d01b57d6c31942a3859448a64736f6c63430005100032",
  "source": "pragma solidity >=0.4.22;\r\n\r\ncontract Storedata {\r\n    address public owner = msg.sender;\r\n\r\n    struct TranscriptDetails {\r\n       string id;\r\n    string fullname;\r\n       string yearofpassing;\r\n       string deparmentName;\r\n       string fileHash;\r\n        bool requestaccepted;\r\n        \r\n       \r\n    }\r\n    event Dataadded (\r\n        string id,\r\n        string fullname,\r\n        string yearofpassing,\r\n        string deparmentName,\r\n        string fileHash,\r\n        bool requestaccepted\r\n    );\r\n\r\nmapping(string => mapping(uint => TranscriptDetails)) public studentStorage;\r\nmapping(string => uint) public transcriptCount;\r\n\r\n constructor () public{\r\nAddDetails(\"10191602023\",\"Nayan Shingare\",\"2023\",\"Computer\",\"0xe332d43ftjukif4r4rmsw\");\r\n    }\r\n\r\n     function AddDetails(string memory id,string memory fullname,string memory yearofpassing,string memory deparmentName,string memory fileHash) public {\r\n        uint transcriptCnt = transcriptCount[id];\r\n        studentStorage[id][transcriptCnt] = TranscriptDetails(id, fullname, yearofpassing,deparmentName,fileHash,false);\r\n         emit Dataadded(id,fullname, yearofpassing,deparmentName,fileHash, false);\r\n        transcriptCount[id]++;\r\n\r\n    }\r\n\r\n \r\n\r\n     \r\n}\r\n",
  "sourcePath": "C:\\Users\\NAYAN\\Desktop\\reacttutorials\\documentverifier\\client\\contracts\\Storedata.sol",
  "compiler": {
    "name": "solc",
    "version": "0.5.16+commit.9c3226ce.Emscripten.clang"
  },
  "schemaVersion": "3.4.10",
  "updatedAt": "2022-10-09T23:56:31.888Z",
  "networkType": "ethereum",
  "devdoc": {
    "methods": {}
  },
  "userdoc": {
    "methods": {}
  }
}